:020000040800F2
:100000006006002099010008A1010008A301000872
:10001000A5010008A7010008A901000800000000D0
:10002000000000000000000000000000AB0100081C
:10003000AD01000800000000AF010008B101000898
:10004000B3010008B3010008B3010008B3010008C0
:10005000B3010008B3010008B3010008B3010008B0
:10006000B3010008B3010008B3010008B3010008A0
:10007000B3010008B3010008B3010008B301000890
:10008000B3010008B3010008B3010008B301000880
:10009000B3010008B3010008B3010008B301000870
:1000A000B3010008B3010008B3010008B301000860
:1000B000B3010008B3010008B3010008B301000850
:1000C000B3010008B3010008B3010008B301000840
:1000D000B3010008B3010008B3010008B301000830
:1000E000B3010008B3010008B301000800F002F8F2
:1000F00000F042F814A696E8000CB244B344DA4586
:1001000001D100F039F8BAE80F000FA696E83000E8
:10011000A5EB040504EB0607AAEB0704A7F101070A
:100120004FEA15154FEA3414A4F10104AC4201D38F
:1001300000F022F813F0010F18BFFB1A43F001037F
:1001400000F001F8DBE71847500C0000600C0000DD
:10015000704700000023002400250026103A28BF25
:1001600078C1FBD8520728BF30C148BF0B60704729
:100170001FB51FBD10B510BD00F031F81146FFF7D7
:10018000F7FF00F079FC00F04FF803B4FFF7F2FF3F
:1001900003BC00F057F800000948804709480047B1
:1001A000FEE7FEE7FEE7FEE7FEE7FEE7FEE7FEE727
:1001B000FEE7FEE704480549054A064B7047000084
:1001C00081030008ED0000086000002060060020A8
:1001D000600200206002002070477047704775463B
:1001E00000F02CF8AE4605006946534620F00700A3
:1001F000854618B020B5FFF7DDFFBDE820404FF081
:1002000000064FF000074FF000084FF0000BAC461F
:10021000ACE8C009ACE8C009ACE8C009ACE8C0096A
:1002200021F007018D46704710B50446AFF30080FA
:100230002046BDE81040FFF7A8BF00000048704707
:100240000000002001491820ABBEFEE72600020096
:100250007047000080B500F001F880BD84B0002038
:100260000390029041F20001C4F20201086840F4D8
:1002700080300860FFE741F20000C4F2020000682D
:1002800000F400300290039801300390FFE70299D8
:100290000020019039B9FFE70398B0F5A06018BFBE
:1002A00001200190FFE70198C0070028E3D1FFE794
:1002B00041F20000C4F2020000688003002803D568
:1002C000FFE70120029002E000200290FFE7029881
:1002D000012851D1FFE742F20001C4F2020108688F
:1002E00040F010000860086820F007000860086807
:1002F00040F00200086041F20401C4F202010091E2
:100300000868086008680860086840F48060086051
:10031000086820F47C100860086840F4E810086061
:1003200041F20001C4F20201086840F080700860E8
:10033000FFE741F20000C4F20200006880010028DB
:1003400001D4FFE7F5E741F20401C4F202010868B5
:1003500020F003000860086840F002000860FFE732
:1003600041F20400C4F20200006800F00C0008280A
:1003700001D0FFE7F4E700E0FFE704B070470000BA
:1003800080B541F20002C4F20202106840F00100A0
:10039000106041F20401C4F2020108680023CFF6A4
:1003A000FF031840086010684FF6FF73CFF6F6633E
:1003B00018401060106820F480201060086820F455
:1003C000FE00086041F20801C4F202014FF41F0070
:1003D0000860FFF73FFF4EF60851CEF200014FF0E4
:1003E0000060086080BD000080B584B0DDF824C0E6
:1003F000DDF820C0DDF81CC0DDF818C003900291C4
:100400000192009300F0F6F9039900200880029908
:100410000870019A01211170009A1080069A1170DB
:1004200007990870089908800999087004B080BD80
:1004300080B582B0ADF80600ADF80410BDF9060035
:10044000303800909DF8060000F006FBBDF804006F
:1004500000EB8001009800EB410000B202B080BDCB
:1004600083B0ADF80800ADF806108DF805209DF9B1
:1004700005002A380146009105282ED80099DFE8AA
:1004800001F013032C0B2C1BBDF80800BDF806105F
:100490000844ADF80A0024E0BDF80800BDF80610D5
:1004A000401AADF80A001CE0BDF80800BDF80610BF
:1004B0004843ADF80A0014E0BDF9060020B9FFE793
:1004C0006520ADF80A000CE0BDF90800BDF9061082
:1004D00090FBF1F0ADF80A0003E06520ADF80A00EA
:1004E000FFE7BDF90A0003B07047000080B584B093
:1004F00003900291019200930398007800F0ACFA07
:1005000003980078029908700199012008700099F9
:100510000020087004B080BD80B584B0ADF80E0036
:10052000ADF80C108DF80B20ADF8083000F062F932
:10053000BDF90E0000F0ECF99DF80B0000F08CFA0C
:10054000BDF90C00B0F1FF3F0BDCFFE7282000F005
:1005500083FABDF90C0000F0DBF9292000F07CFAE9
:1005600004E0BDF90C0000F0D3F9FFE73D2000F0F6
:1005700073FABDF90800652805D0FFE7BDF908004A
:1005800000F0C6F908E000F035F940F67850C0F602
:10059000000000F0A1F9FFE70120022100F030F98E
:1005A00040F68750C0F6000000F096F9FFE700F033
:1005B0005FF8ADF80600FFE7BDF90600013000283E
:1005C000F5D0FFE7142000F009F8FFE700F050F83D
:1005D000013008B1FFE7F9E704B080BD83B0ADF8A2
:1005E0000A0000200190ADF80200FFE7BDF802000C
:1005F000BDF80A10884214DAFFE700200190FFE7F7
:10060000019880084A2805D8FFE7FFE701980130E4
:100610000190F5E7FFE7BDF802000130ADF80200F8
:10062000E4E703B07047000083B0ADF80A00002093
:100630000190ADF80200FFE7BDF80200BDF80A1016
:10064000884213DAFFE700200190FFE701980528B0
:1006500005D8FFE7FFE7019801300190F6E7FFE7D3
:10066000BDF802000130ADF80200E5E703B07047C5
:1006700080B588B040F60E50C0F20B70069043F281
:100680006300C2F63D30059043F23120C2F633508C
:10069000049043F23450C2F63620039043F63700FC
:1006A000C2F63970029004208DF80600FF208DF804
:1006B000070000208DF80500FFE79DF805000328DE
:1006C00000F38E80FFE741F20C01C4F201010868DB
:1006D00000F0F00008609DF8052006A8825C08681C
:1006E000104308600220FFF79FFF41F20800C4F2A8
:1006F00001000068C00600280FD4FFE700208DF835
:100700000600FFE741F20800C4F201000068C006DD
:10071000002801D4FFE7F5E7FFE741F20800C4F243
:1007200001000068800600280FD4FFE701208DF843
:100730000600FFE741F20800C4F2010000688006ED
:10074000002801D4FFE7F5E7FFE741F20800C4F213
:1007500001000068400600280FD4FFE702208DF852
:100760000600FFE741F20800C4F2010000684006FD
:10077000002801D4FFE7F5E7FFE741F20800C4F2E3
:1007800001000068000600280FD4FFE703208DF861
:100790000600FFE741F20800C4F20100006800060D
:1007A000002801D4FFE7F5E7FFE79DF806000428DD
:1007B0000FD0FFE79DF8051002A800EB81009DF81F
:1007C0000610405C8DF807009DF807008DF81F00AB
:1007D0000BE0FFE79DF8050001308DF805006CE7A0
:1007E0009DF807008DF81F00FFE79DF91F0008B076
:1007F00080BD000080B5012000F01CF980BD000024
:1008000080B582B08DF807008DF806104CF280009C
:10081000CDF2944000909DF806006946084410F817
:10082000010C9DF8071008440138C0B200F002F92D
:100830006420FFF7F9FE02B080BD000080B540F6ED
:100840000C01C4F20101086820F02000086040F6A5
:10085000B830FFF7E9FE332000F0ECF8322000F06A
:10086000E9F8282000F0E6F80C2000F0E3F8012079
:1008700000F0E0F84FF4FA60FFF7D6FE062000F033
:10088000D9F880BD80B582B0282000F0E5F82D2091
:1008900000F0E2F82020009000F0DEF8009800F070
:1008A000DBF8009800F0D8F8009800F0D5F829207F
:1008B00000F0D2F81020019000F0BCF8019800F090
:1008C000B9F8019800F0B6F8019800F0B3F8019873
:1008D00000F0B0F802B080BD80B582B00190002079
:1008E0008DF80300FFE701989DF80310405C60B1AC
:1008F000FFE701989DF80310405C00F0ADF89DF80B
:10090000030001308DF80300EDE702B080BD000068
:1009100080B584B0039000200090039820B9FFE7D1
:10092000302000F099F83AE00398B0F1FF3F07DC7F
:10093000FFE72D2000F090F8039840420390FFE776
:10094000FFE7039801281DDBFFE7039846F2676184
:10095000C6F2666180FB01239A0802EBD37202EBB8
:100960008202A0EB42003030009B5A1C00920DF135
:100970000602D054039880FB0101881000EBD1706F
:100980000390DEE7FFE70098411E009138B1FFE7D2
:1009900000990DF10600405C00F05EF8F3E704B04A
:1009A00080BD000080B588B08DF81F0040F61401AE
:1009B000C4F2010101910F20029008609DF81F0010
:1009C000000940F61001C4F201010391086040F6ED
:1009D0000C01C4F201010591086840F02000086094
:1009E00001200490FFF720FE0599086820F0200000
:1009F000086064200690FFF717FEDDF804C0029936
:100A0000039B0498059ACCF800109DF81F1001F084
:100A10000F011960116841F020011160FFF704FE19
:100A2000059A0698116821F020011160FFF7FCFD7E
:100A300008B080BD80B582B08DF8070040F60C018B
:100A4000C4F20101086820F0100008609DF807005A
:100A5000FFF7A8FF02B080BD80B582B08DF8070017
:100A600040F61001C4F20101102008609DF8070053
:100A7000FFF798FF02B080BD80B58AB000200590D6
:100A8000099041F21801C4F20201086840F0FC002C
:100A9000086040F60001C4F2010143F23330C4F2B1
:100AA0003340086041F20001C4F2010143F23330E7
:100AB000C8F68800086041F20C01C4F20101FF2071
:100AC0000860FFF7BBFE40F66F50C0F60000FFF76E
:100AD00003FF4FF4FA70FFF781FDFFF78BFE0598D7
:100AE000ADF822008DF8210001218DF82010ADF81D
:100AF0001E008DF81D108DF81900FFE7FFF7B8FDF7
:100B00008DF818009DF918002A38014604913928FB
:100B100000F2DA800499DFE811F06B003A00D700A8
:100B20004300D7007400D700D700D700D700D70004
:100B3000D700D700D700D700D700D700D700D700FD
:100B40007D00D700D700D700D700D700D700D70047
:100B5000D700D700D700D700D700D700D700D700DD
:100B6000D700D700D700D700D700D700D700D700CD
:100B7000D700D700D700D700D700D700D700D700BD
:100B8000D700D700D700D700D700D700C10006A8EC
:100B900007A90DF121020DF11903FFF7A7FCDFE012
:100BA0009DF8210058B9FFE79DF8190038B9FFE713
:100BB0002D20FFF751FFFF208DF8200017E09DF852
:100BC000210050B1FFE79DF8190030B9FFE7FFF7AA
:100BD00059FEFF208DF81D0008E006A807A90DF1B9
:100BE00021020DF11903FFF781FCFFE7FFE7B7E0F2
:100BF00006A807A90DF121020DF11903FFF776FCF4
:100C0000AEE006A807A90DF121020DF11903FFF7C7
:100C10006DFCA5E09DF92000013040B9FFE7BDF86B
:100C200022009DF920104843ADF82200FFE79DF90E
:100C30001D00013040B9FFE7BDF81E009DF91D10F1
:100C40004843ADF81E00FFE7BDF92200BDF91E10B4
:100C50009DF91C20FFF704FCADF81A00BDF9220035
:100C6000BDF91E109DF91C20BDF91A30FFF754FC88
:100C700069460DF11900C8600DF11A00886007A8D7
:100C800048600DF11D0008600DF122000DF12101F9
:100C900008AA0DF11E03FFF7A7FB61E069460DF1FD
:100CA0001900C8600DF11A00886007A848600DF1AE
:100CB0001D0008600DF122000DF1210108AA0DF1BF
:100CC0001E03FFF791FB4BE09DF81900052825DB7B
:100CD000FFE7FFF78FFD40F66250C0F60000FFF718
:100CE000FBFD4FF4FA70FFF779FC69460DF119002E
:100CF000C8600DF11A00886007A848600DF11D005A
:100D000008600DF122000DF1210108AA0DF11E036A
:100D1000FFF76AFB00208DF8190021E09DF918000B
:100D20000130E0B1FFE79DF8210048B9FFE79DF9E8
:100D30001800BDF92210FFF77BFBADF8220008E098
:100D40009DF91800BDF91E10FFF772FBADF81E00EB
:100D5000FFE79DF8190001308DF81900FFE7FFE764
:100D6000CCE6546F6F2044696769742121210052D9
:100D7000656164792E2E2E00556E76616C69642053
:100D8000696E7075742E0050726573737320616E96
:100D900079206B65792E0000A80D00080000002066
:080DA000600600005401000888
:04000005080000ED02
:00000001FF
